:100000000C942A000C9434000C9434000C943400AA
:100010000C9434000C9434000C9434000C94340090
:100020000C9434000C9434000C9434000C94340080
:100030000C9434000C9434000C9434000C94340070
:100040000C9434000C9434000C9434000C94340060
:100050000C94340011241FBECFE5D8E0DEBFCDBF25
:100060000E94A6000C94B3000C94000023E023BF70
:100070003CE908C032BF28B7216028BFA89508B660
:1000800000FEFDCF0197B0F713BE0895662311F06F
:10009000C09A01C0C098C19882BB8FEF81BBC29A41
:1000A000000000000000C2980895C098C19A11BADB
:1000B00090B3C29A00000000000011BA90B3C29839
:1000C00099239CF30E9446000895B89AB99ABA9A67
:1000D00080E190E00E94360060E080E30E944600EC
:1000E00085E090E00E94360060E080E30E944600D8
:1000F00081E090E00E94360060E08CE30E945500B1
:1001000060E08CE00E94550060E086E00E945500AF
:1001100060E081E00E945500089560E081E00E9467
:1001200055000895CF93C62F98E2899FC00D1124E2
:1001300060E082E00E945500CC2331F060E084E171
:100140000E945500C150D1F7CF91089581E08ABB3C
:100150000E9465000E948D0060E080E00E94920095
:0A01600080E090E00895F894FFCFCE
:00000001FF
